:100000000C94EE080C941B090C941B090C941B090E
:100010000C941B090C941B090C941B090C941B09D0
:100020000C941B090C941B090C941B090C941B09C0
:100030000C94513F0C941B090C941B090C941B0944
:100040000C941B090C94C82F0C941B090C941B09CD
:100050000C941B090C941B090C941B090C941B0990
:100060000C941B090C94283F0C94FE3E0C941B0925
:100070000C941B090C941B090C941B090C941B0970
:100080000C941B090C941B090C941B090C941B0960
:100090000C941B090C941B090C941B090C941B0950
:1000A0000C941B090C941B090C941B090C941B0940
:1000B0000C941B090C941B090C941B090C941B0930
:1000C0000C941B090C941B090C941B090C941B0920
:1000D0000C941B090C941B090C941B090C941B0910
:1000E0000C941B090C94A21F0C941B260C94C42E78
:1000F0000C94AF2B0C947C3A0C94232F0C945F1629
:100100000C94F2310C9473290C940E290C947E2ECD
:100110000C9485160C94912A0C94F4130C942016CC
:100120000C9499200C9414230C94901F0C94313C43
:100130000C94C2270C948C190C94B22B0C94C52EE1
:100140000C9470120C944C310C94131F0C941234B8
:100150000C949F1A0C94B43A0C94983A0C94C716C9
:100160000C94D5110C949D320C942B140C94FD21FD
:100170000C94A2310C94592D0C94941A0C94631F76
:100180000C94FB200C940A2C0C94133C0C94952397
:100190000C94DD1E0C94E81F0C9444370C949928A1
:1001A0000C94631E0C94D8130C946C2F0C94CB29D4
:1001B0000C94F2110C94DE1D0C9430160C94D43176
:1001C0000C94223B0C94353A0C94EA320C9496220F
:1001D0000C9409330C943F290C94B4280C94881483
:1001E0000C94F5220C9446270C944E210C94DE2599
:1001F0000C94B1290C94A5210C9456280C946337C7
:100200000C946E190C94C3280C94113C0C94122875
:100210000C94F23E0C947B330C9448120C94EA221A
:100220000C940D270C94B5220C94222A0C94A5262C
:100230000C9459220C94E1220C94252C0C94F01669
:100240000C9482240C949F330C94F42C0C94FC2C6E
:100250000C946A160C942D210C949A330C94C23889
:100260000C94F72B0C94FC120C9423140C94401C4B
:100270000C9424190C9455140C94A32B0C94E22E7A
:100280000C947E130C9461250C94F72E0C94DB1DBA
:10029000040000000004040000000004000000004E
:1002A0000000000400000000000400020000040040
:1002B0000400000407040400000404040000020217
:1002C0000000000204070004070704000404000003
:1002D00004000202040404040400000400040404F2
:1002E00004040404000400020304000404000400E5
:1002F00004000004000400000000000000000102EF
:100300000102F402232F020001000000A32B0300CE
:1003100001000000AF2B040001000000B22B05001B
:1003200001000000F72B06010001CB057E1307003A
:1003300001000000F41308010001F302D8130900C2
:1003400001000000C42E0A020101C605E22E0B03C3
:100350000103F002C52E0C020102EE02F72E0D027F
:100360000002F4029A330E020002B2059F330F031B
:100370000003F002123410020002EE026E191105A1
:100380000005E902241912020002B205912A1301A4
:100390000001F302732914020002EE024812150252
:1003A0000002B205D51116040004E502701217050B
:1003B0000005E002F21118010001F3023F291908BB
:1003C0000008D802CB291A030003D502B1291B0269
:1003D0000002B20599201C020002EE02631F1D04F8
:1003E0000004A005FB201E010001F302901F1F085E
:1003F0000008CD02131F20020002EE02A21F2104FA
:100400000003B4052B1422030002B70520162303B2
:100410000002B705301624040004AE058814250137
:100420000001F302231426030003CA025514270512
:100430000003C702252C28040003C402FC2C290356
:100440000002B7050A2C2A040004AE05592D2B0121
:100450000001F302F42C2C030003C102E1222D035E
:100460000003B905631E2E060006BB02DD1E2F0227
:100470000002B2050D2730050005B60259223104ED
:100480000004C005B52232020002B20596223304F0
:100490000003B302A52634050005AE024627350148
:1004A0000001F302F23136040003A4059D32370542
:1004B0000005A902DE2538040004AE05A231390387
:1004C0000003CA02D4313A030002B705EA323B0303
:1004D0000002B7057B333C060006A30209333D0347
:1004E0000002B7057C3A3E030002B705983A3F0880
:1004F00000089B02B43A40060006A302223B4105D5
:1005000000059602353A42010001F302F01643035A
:100510000003F002401C44020002B2059F1A450687
:1005200000069002851646030003D502C716470150
:100530000001F302633748030003F002C2384902A6
:100540000002B20544374A030002B70595234B0465
:100550000004A005A5214C030003D5024E214D0146
:100560000001F30214234E030003F00282244F0221
:100570000002B205F522500001000000F23E5100D9
:100580000500000028292A2B2C2D2E2F50515253C4
:1005900054555657040000020400020402040007E8
:1005A0000400000404020704000002040402040022
:1005B0000000040404040704070400020404040007
:1005C0000404000404010704000402000000000009
:1005D0000000060002026D4003A4056C1F0794058D
:1005E0006B4003A4056A0B029B056940039D0568E7
:1005F0004003A405671C07A705661404A005654011
:1006000003A405641C07A705631704AE05620A026C
:10061000B205614002B705604003B4055F4002B710
:10062000055E4002B7055D1003B9055C1104BC0509
:100630005B1104C0055A0D02C405590B01CB0558C6
:100640004001C605571204C705560B01CB055510CE
:1006500002CC05541503CE05004002D105530E020D
:10066000D305520901D505510600000020002300E2
:10067000260029002C002F00320000010000030199
:10068000060109010F47004400450080013548007C
:100690004400450020010D88008000810080000E8C
:1006A0008A008000810020000F8C008000810008FB
:1006B000000CB300B000B10080033EB400B000B144
:1006C000002003239800900091008000249A00905D
:1006D0000091002000259C009000910008003BA89C
:1006E00000A000A10080003CAA00A000A100200002
:1006F0003DAC00A000A10008005B28012001210101
:1007000080005C2A012001210120005D2C012001D4
:100710002101080078DAB559796FDBCA11FF2AFB8D
:1007200004043D6007122952928BFCE12BAF6EE26C
:10073000C42F8A9B024541D0E44A5A98D7E3923E9F
:10074000FAE0EFDE999DBD48C979418B0608C4DD0A
:100750009DD9638EDF1CFE6D72D78B224F1E782BC6
:10076000455DC9C9C9649B6527AC144F3C6777A236
:10077000EA3B51C813F6C79F3FDDB2333DFC130B74
:10078000DE06F1DB603A8BA7B3209A1C4DB2BA2C7F
:10079000D32A07F6DF266951D459DAF1A416B964D1
:1007A00059DD57DDBB37D9E464790467751D1C92A8
:1007B000A4D93D835598F6D6E70B8F20CF0D415332
:1007C0004BF523AA776F7AD6F44591F40D31AC1C22
:1007D000C3AF3D6F9FED9E70817BA46EB9EC924ECE
:1007E00064F792465D9B56B2145D624E65A2829795
:1007F000EBF3E18259C1D33691BBBECBEBC76A7232
:1008000012E0D3AA8DD8C28D9E8A701E99236423CC
:1008100012FA9C9C2C424755A545BD4D44656FAFCF
:10082000AE3D3909DD4EFACA86828689934334B5D6
:10083000A46A92B7C3CD063288169638175BD1A545
:100840004552F7DD88E1212D7A8EE39C6FD2BEE818
:10085000123B51A64F49DEB76907BA57F79CB9FD5D
:1008600038E8B3AB9BC15ED9E0F020B6C4BB7C3E98
:100870005F2CA786B895893E9B9B8F7C6EBF22FB21
:1008800015DBAF85FDE245FA6C953639899D7445D7
:10089000903123F4B99B2E840CF2C7439A89979622
:1008A000A86CFA5510D90BC2564E7F2B4B55F1BA96
:1008B00001CB2F4602CCD32E4DA4F837C86CD7837A
:1008C0005774090ACE332CC9614A54DEB5A3C86EE9
:1008D000DA3C960794923D83B1B93DB44A76FD580F
:1008E0004930B3A7A5B9133C3C77BC31FA57271E52
:1008F00078B213DB9D7A61B8F4E9C14AB705DF9796
:1009000017B36B49F7DC7092CDE024EB198798F5AB
:100910005252CAEDBB377F062808C301EFA3E87621
:10092000208624935689A1B336D92D5681554F661A
:10093000ED4766C5BDFD16B9FD7CAEB264682A2CD4
:100940002BF364CF7AA6DE09BC699C33E130D14633
:100950009D8BD67C1220286247D517927B9B06EE92
:1009600061DD8EB7650D7EDA1C94A8BFEC09D55DFC
:10097000AA2BB33E6DAD6DB44FC99E93B3CE4EA2BC
:10098000E575A2E464610E52BA16E5E1C40AFBE71C
:10099000FCAE077BAE9BC9C9CA8C6097ADB265D26D
:1009A000CFCC92B53C05BC6D73DEE27900BE2D81E3
:1009B0004160081E5BD1F13D0A345A229C1D4D78DE
:1009C000C9DB2DAFB2E70451032E01538420C9AE19
:1009D0002EF91E36CBB46C7C07D0638BCC43EC86EF
:1009E000AB3BD4A2E75A19B762BBE52D3E42A27FCA
:1009F000203045EE701519E04E69C7AD8082F9D1FF
:100A0000642300ABC1A5139221CBDA8C2CE668B22B
:100A1000056F56F70421EB91A201CDD1B06F500BB9
:100A2000E08747130D7C8984F312B0408BEBF84DBF
:100A3000728E831119AAC0903975C4204484A5B25E
:100A4000CEC5E639015DDBBD5AAE5C8AE9F00437FC
:100A5000C055ED652B62231D0EE9712E29B8068D58
:100A600029112AF65EFA48084385632023FC45F5E0
:100A70007249B63E0F1C97AC37DD63DA729F1DFCDE
:100A8000D3FA649E9ACF433BC511EDA46D69FCFC7B
:100A9000393E3FE755078F67F56603072AA7B6710A
:100AA00011D60D3C2B315A6D46A1B7D237B9D3348C
:100AB000250FBBDE3B26029D91498C22FAE1A40161
:100AC000541E8C18942DF50EC416334B308EFEFF39
:100AD000A5B197CED835FABB1164305B60DCF1EC80
:100AE000DECB19427B8751CA606FD0D48027E3F3F5
:100AF000BD70159B0D86D1F435A9C48B21FD5828F6
:100B0000B1DD6F14785F15F372C4B027667BE25EC7
:100B1000087B25DF431F8588253624A345643638A6
:100B200004DAAFECE1A962A0091A40B0000CC93D9B
:100B300045C42B7548CF0FA563F68CDACF146691A8
:100B40006119250A96DC6A1FBCC4126364B23E8C2C
:100B50002A2730360EB353CE07BF02E00E4C58E5BD
:100B60002890844FF5A7E227941B9F070C408534FB
:100B7000FE1B46B924DC3BDC23522F50898DDD73EC
:100B800090E500534C4C157FD25780D86BC140B4D0
:100B900004CF332232F2F89D8C09A4024EED252FAA
:100BA00098E56F9C0F38E75F683A0F3EBCD5D0AE32
:100BB0000E0012A734400234730FDE8025762C8796
:100BC000D0B114B2369858D6521CCA6AF6368DF592
:100BD0003D5E7F4708564009D3F7E24EB41A521DD6
:100BE0000E3BD112A9546A94606C03C81498685AD9
:100BF000C79BAD1C818AA868BD1473990DC15E4066
:100C0000060ED852273603512BE4B78189B01B5406
:100C1000ADB95186E8B2073C004C62E9E83A3F6161
:100C2000E24DDDEA684DDEABC6D648F853234025D9
:100C30007E6EB0B23B8D5EE11301D8502439E4C71B
:100C40009E0FCC5F4C1286A5EFE9C579727DFA0F35
:100C50004CAD30473CBB5D2737579FD6885850581E
:100C6000DF9C8547376701FC9F4DBCC5EE512D5E6B
:100C70004C8F6E2E70E1FCE3E7F30FC9FB2F97BF9B
:100C8000A0BB4CD5BFA3C9F5F92D50A55DC9B76967
:100C900010C55320BCF9764DA705586C7CB93CBFF4
:100CA000BCFAFB65F2EDEAD3C5E76FA8B60027D71B
:100CB000975F60926EC15B911678D6259C758967A7
:100CC000C1EAD5E9C7E4ECF4F602B7A1A3D65F4FB9
:100CD000BFAE93F5EDF5FA1758595FE24AFC821959
:100CE000550F399EAA4254A1AF3307FC546F9802A6
:100CF0000DD8348E6F4EA793937F4E8F96FF826BE5
:100D00009EE1F792BECFF11B40400D2E7000B998C6
:100D10001A5CE200CA6435788F83B9E6FF590DF496
:100D2000067FC541A437F81B0E169AE7833A46F3AF
:100D30007C5403E479194003A4E0AA47310BC310A3
:100D40006E7C344965349D2F72955E74058FA6B311
:100D5000E00E1EACB9F4F394FEF0791893049A6097
:100D60000BA9742272AD74A68C6343C199EAE2D3D5
:100D7000026DFC9999343327C03C4F2B56D51D0387
:100D8000636708180C308E808D299B658F3B01DFCF
:100D9000647B9235E03D701221B2E1ED2557B1AD93
:100DA0009DB14DDD323083BF98B190B89AAB7935A3
:100DB00025C9C580F50F1D0604A8A1B67021284CD1
:100DC000D20EA9537D4DAA182973D6C41249D1E475
:100DD00029BFA759153BD4D670535E315354597E61
:100DE00030BA736A06B1266DC1E4186FDBBA55A933
:100DF000B35968398430D9A996D0FB14DE9BB3AEC1
:100E0000660A29B0C4570E4EFDA02B0AB0CCF44C94
:100E10005C0B87E21C653E864A77A154D6EEE680DD
:100E20000CAF92961C8224156F66B1AC1FB8B90D39
:100E3000C3FA1E3DDA2DDB6E80ADFF09F1F7D675E2
:100E4000D269CF0FBD0B800019991D96536616CB42
:100E500076831BC16230AF739B6C271ACD389F0D10
:100E60000940057DE3DE24A921602806D98DB70B52
:100E7000160AD7E913DAE9D208948AF46B48D1D379
:100E80002D6750BD412C320A832DAF85446B929063
:100E90006EE67D81D5233063E8661A1595E1F30788
:100EA0008E9AC0A8FD3AC32E6D7365EC9A1A6BD466
:100EB0006B14BFCA66187CB59BA27EA474E8135855
:100EC00079CAE839E85E0A55E6A305B07B5AC04204
:100ED000D85F10554349037589D452853775D3734C
:100EE000859ED6FA9BB6DE82304BB87A8A6FDB409D
:100EF000D4855B82B0393A2E76E4BE70FD28345634
:100F0000F42C3806450D6A404BC632696D09F6A4CB
:100F1000C31E45514030CA60BF413B87C2ABE3B4FA
:100F200012FA0E0746B0357821E9505D002944D900
:100F30009766CE3807DECAB46C54F1089B29BF55BA
:100F400018E4B739D7DA91BBBA669B54BD8E5E867A
:100F5000B5F257DFA4506440A89A54D45AFAAAE4D0
:100F6000819C10872557B5FF6D25FB06633127A7A8
:100F700056488A1DDB6F6997EDF27A4B52FC89CA9D
:100F800037D53386AAA6AFEE616344046A457AF387
:100F9000D22D8065928F006448403AF46088F25008
:100FA0001F4BAD5FD76021C0AAAB0230EE013648BF
:100FB000EF0A035DF6F95441339D7C50277854893C
:100FC0009FB0CF009E1000EF305FD8602746FE44F0
:100FD00069896A735B1CD5CDEF9CDA2B12EBD90AB9
:100FE00010824C2683655CC2040FC05F35343F9D80
:100FF0009E7FA04E98E905A93C0DA559A42D861306
:10100000CC4B0F2423A8423278ECAC69042677C27B
:10101000140CA2D55EF709C315640CE16C19452ABE
:10102000FAE941ACC21F0DE248D9030CE27801DFB6
:10103000E1CB8B2A191A800B4E0D7E5D07FBF9A4BC
:101040004410AD323EAAB68FD17A0ED6CDAEBAD10B
:101050003599C9D8A832F0B7BBEB953F2AAE8DD8E9
:10106000D4F85B08AF8D8F25C031462E5B800FFA18
:101070003DB4E5A16A6A15BABF200C3852AFBA6612
:101080006A45BF47F5F155D1E472D3A5ED914244CD
:10109000D5AD22F542D551C239636AAA2400A8F31E
:1010A0002FBE543D5055B47FEFD69A437F24EEF4C3
:1010B000E360E5DA78127CD276E5962BD7051BEC57
:1010C000BCABA1ACDDEE9FE137D9403833D7584AED
:1010D0008C01B85C99C6249655E47A371EA96DE256
:1010E0009041BC45526C423981B07142A5650252B3
:1010F000D67D851F32B28525FF3FDB18B8BB694F0F
:10110000FCC8C510DB0FB633FEA79BF5876E36F51E
:101110007A60DA0ECCE5FA2C533DB80CED17E840B6
:101120003B7E1B788905A00B12A663755831A19FE1
:101130004DFF906E663E87570CFA0C48171C2AE14B
:10114000F7ECCE6FD37806781C84C39AF9F70C7647
:10115000AE72F9B653C9F5724699BD745E26FB525C
:10116000FFC85FC999E6AE0A1E95C8D465840A61B6
:10117000351D61EE50110761A8A7404ADAC1C2C10E
:1011800014CEFB0FC092994068E617C3CEAFB3D41C
:1011900056E6071BE31E666171485D6C467F25EAD3
:1011A0007D408B00F2F55F84A15C7C98BE9DCDDE16
:1011B0004EC1CDE2E32D5FDD6D827C9E81C505E1F0
:1011C00074158449309B4335755CABE2A7114D0122
:1011D00091FEE53F540C2C55C40A000011241FBE9B
:1011E000CFEFD1E2DEBFCDBF00E00CBF14BE0FB623
:1011F000F894A895809160008861809360001092B7
:1012000060000FBE12E0A0E0B2E0E0E6F0E800E02F
:101210000BBF02C007900D92AA32B107D9F723E0A5
:10122000AAE2B2E001C01D92A839B207E1F70E941C
:10123000F9300C942E400C940000CF93DF93CDB77F
:10124000DEB769970FB6F894DEBF0FBECDBF0E9420
:10125000E6306B017C019E012F5F3F4F1901AE010B
:10126000475F5F4F5E874D8780912602882309F490
:10127000F0C50E94E630C61AD70AE80AF90AF894BF
:1012800080912602882351F08FEF80932602789474
:101290000000F894809126028111F9CF78940E9481
:1012A000E630A7019601260F371F481F591F2B8BC9
:1012B0003C8B4D8B5E8B81E08093260280914902AE
:1012C000882309F43EC0109249028FEF898360E9B8
:1012D0007FE1C1010E94C02A8C01892B91F1D801C4
:1012E00056968C9182FFF3CF0E94E630F894F80175
:1012F00037892689422F4B7F468B78949F938F9313
:101300007F936F931F923F9321701F922F93898138
:101310001F928F932BE236E03F932F930E945F350D
:101320006DB77EB7645F7F4F0FB6F8947EBF0FBE78
:101330006DBF60E97FE1C1010E94C02A8C01892B49
:1013400071F680914A028823F9F010924A028FEFD9
:10135000898362EA7FE1C1010E94C02AFC01892BD6
:1013600099F0958D868D9813F4CFF894858D968D90
:10137000891709F457C6789462EA7FE1C1010E9497
:10138000C02AFC01892B69F780914C028823F9F06F
:1013900010924C028FEF898307E116E066E972E252
:1013A000C1010E94C02A009791F0DC0158962C914F
:1013B0002F3FA1F7F894FC0126852111F1C4789400
:1013C00066E972E2C1010E94C02A009771F780911C
:1013D0004E028823D9F110924E028FEF898302E1E9
:1013E00016E066E477E2C1010E94C02A009771F11D
:1013F000DC011E962C911E9723FFF3CFF894FC017D
:101400002685277F268778949C01265E3F4F3F9351
:101410002F9350968C918695869586951F928F93E3
:1014200089811F928F931F930F930E945F35EDB7B1
:10143000FEB738960FB6F894FEBF0FBEEDBF66E458
:1014400077E2C1010E94C02A009791F6809159026B
:10145000882309F446C0109259028FEF898308E06F
:1014600016E064ED71E3C1010E94C02AFC01892BE2
:10147000C1F1848D80FFF5CFF89494812581368168
:101480004781548965897689A789B08DF18CE28C72
:10149000D38C848D8E7F848F7894DF92EF92FF922D
:1014A000BF93AF937F936F935F934F933F932F932C
:1014B0009F9389811F928F931F930F930E945F3593
:1014C0002DB73EB7205F3F4F0FB6F8943EBF0FBE1B
:1014D0002DBF64ED71E3C1010E94C02AFC01892B7C
:1014E00041F6809146028823B9F1109246028FEFAF
:1014F0008B87AE01455F5F4F2A01F2E0DF2EAEE23F
:10150000EA2EB0ECFB2E6FE97AE1C2010E94C02AFC
:101510008C01892B09F1D80152968C9182FFF3CF6F
:1015200080FF87C1C8010E94343CF801D28A148A26
:10153000E982FA82910142E060E0848595850E940B
:101540002615C8010E94901B6FE97AE1C2010E9432
:10155000C02A8C01892BF9F680914502882309F471
:1015600050C0109245028FEF8B879E01255F3F4F41
:10157000290167EC76E1C2010E94C02A5C01892B37
:1015800009F43FC0D50159968C91599780FFF1CF4E
:10159000F894F5016480758086809780818D8E7FB8
:1015A000818F789458968C91813009F499C308F40E
:1015B00079C3823009F439C38330D9F6CB841982D8
:1015C0001A82910142E061E0F501848995890E94C7
:1015D000261509811A81102701271027F02FF67090
:1015E000EF2E20E030E0B401A301C5010E945317A3
:1015F00067EC76E1C2010E94C02A5C01892B09F0E8
:10160000C1CF80915B028823B1F110925B028FEF12
:101610008B879E01255F3F4F290152E0D52E6DE259
:10162000E62E78E0F72E64E477E3C2010E94C02A38
:101630008C01892B01F1D80152968C9182FFF3CF56
:1016400080FFF2C0C8010E94343CF801D28AE982CE
:10165000FA82910142E060E0848595850E9426151A
:10166000C8010E94EB3764E477E3C2010E94C02AFC
:101670008C01892B01F780914B02882309F45EC00D
:1016800010924B028FEF8B879E01255F3F4F290100
:1016900077247A946EE471E2C2010E94C02A8C0120
:1016A000892B09F44BC0D80150968C9182FFF2CF60
:1016B000F894F80184809580A680B780F488108A19
:1016C000148A789480859185A285B385881A990AB1
:1016D000AA0ABB0AD801FF2091F052968C91F8011A
:1016E000E80FF11D758A168A178A8D5FF801828BC3
:1016F0008E3208F093C0FA94D801F110EECF5196D3
:101700008C91882309F432C2813009F415C38230E8
:1017100009F434C4D80152968C9190E08E970CF461
:10172000B9CF6B85C8010E947F216EE471E2C201CE
:101730000E94C02A8C01892B09F0B5CF80914D02FF
:10174000882309F4C3C010924D028FEF8C8730E3D9
:10175000632E42E0742E53E2952E6AE6C62E74E0A4
:10176000872EE0E44E2E65EF72E2CE010C960E94C9
:10177000C02A7C01892B09F4A9C0F701868982FF60
:10178000F2CF80FF5BC0C7010E94343CD701569660
:101790007C92569799821A821C96ED91FC911D9726
:1017A000A10162E080810E946518C9828A82D70106
:1017B0001C96ED91FC911D97A10162E080810E9431
:1017C0006518C9824A82D7011C96ED91FC911D973C
:1017D000A10162E080810E946518BAE3BB87D7014E
:1017E0001C96ED91FC911D97810121E0AE01455FB2
:1017F0005F4F61E080810E94DB179982B8E0BA8375
:10180000D7011C96ED91FC911D97A10162E08081AA
:101810000E946518C7010E943D24A5CF6B85C801B1
:101820000E947F21FA9468CF6B85C8010E940A3814
:10183000FACE6B85C8010E94AF1B65CE5C84F701B0
:101840000789D62CD01AAD2CB12C848995898A159C
:101850009B0508F4C4C2B4E7B98310E0085E1F4FCB
:101860000E0D1F1DD7011C96ED91FC911D972D2D7E
:10187000A10161E080810E94DB17F7018789D80E02
:10188000D78A848995898A199B09958B848B652DC4
:10189000C7010E945C24D70154968D919C91559765
:1018A000A816B90608F4FCC2F701868981FF5BCF50
:1018B000C7010E94343CD70156968C9156978B7F76
:1018C00056968C93C7010E943D244DCFA8958091D8
:1018D0007402882329F080E48093600010927402DF
:1018E00010913503112309F46DC000912A0200FD07
:1018F00012C0153008F466C0B0907502CB2C8BEF87
:101900008B0D8C3308F4D2C2EEE7CE1609F43FC437
:10191000016000932A02412F50E06EE770E085E7F6
:1019200092E00E94FF3F009739F00E7F00932A0259
:101930008557924011E0180F01FD0CC0902F926066
:1019400090932A028FE795E09F938F930E945F35D3
:101950000F900F90B12EDD24DA9480E0EB2CF12C67
:1019600018C090E0402F50E0481B590BB701680F9A
:10197000791F6B587D4F8B589D4F0E9415401092D8
:101980002602802F9FB7F89420913503121761F03B
:101990009FBF10913503012F0B1919F79FB7F894CA
:1019A000209135031213F4CF009335039FBFF1E06C
:1019B000DF1208C08FE795E09F938F930E945F35F9
:1019C0000F900F900E94E6306B017C012B893C89BF
:1019D0004D895E89621B730B840B950B80903302DB
:1019E00090903402A0903502B09036023FEF831AF7
:1019F000930AA30AB30A8092330290923402A0920F
:101A00003502B092360240902F0250903002609022
:101A1000310270903202460E571E681E791E4092A7
:101A20002F025092300260923102709232026115A0
:101A3000710541E08407910508F010C29B01AC01DB
:101A40000E945C3FDC01CB0181509F4FAF4FBF4FE5
:101A5000892F9A2FAB2FBB2740912B0250912C023C
:101A600060912D0270912E02840F951FA61FB71F43
:101A700084179507A607B70718F48FEF9FEFDC01CF
:101A800080932B0290932C02A0932D02B0932E02F0
:101A90004091530250915402609155027091560248
:101AA0005C546B437B4F2F2DC416D506E606270BDF
:101AB00027FDDACBBF93AF939F938F937F926F9263
:101AC0005F924F92BF92AF929F928F9283E596E082
:101AD0009F938F930E945F356DB77EB7625F7F4F94
:101AE0000FB6F8947EBF0FBE6DBF809153029091E8
:101AF0005402A0915502B0915602C816D906EA06C2
:101B0000FB0698F480914F0290915002A0915102EF
:101B1000B09152020196A11DB11D80934F02909386
:101B20005002A0935102B0935202C0925302D0923D
:101B30005402E0925502F092560210922B0210923B
:101B40002C0210922D0210922E0210922F0210924F
:101B5000300210923102109232021092330210922F
:101B6000340210923502109236027ECB82E38983D2
:101B70001A820E94E6306B017C01910142E061E033
:101B8000F801848595850E9426150E94E630DC01C7
:101B9000CB018C199D09AE09BF0981329340A10583
:101BA000B10508F0EFC0998197FD4AC1C818D9085E
:101BB000EA08FB08D80153968C918823C1F02FEFD7
:101BC000280F41E050E002C0440F551F2A95E2F76C
:101BD000052E000C660B770BC40ED51EE61EF71EF5
:101BE00004C0F694E794D794C7948A95D2F7BFEFD0
:101BF000CB16D104E104F10408F086C12A8130E05B
:101C0000220F331F892F90E0982F8827990F822B5E
:101C1000932BF8012289E20FF11DC58A868B978BE1
:101C20002D5FD80152962C9375CDCB8481E08983AA
:101C30001A821B821C82910143E061E084899589AC
:101C40000E94261569817A818B819C810E948E3F3A
:101C5000BB27A92F982F872F9C01AD01442755271B
:101C60002F87388B498B5A8B37E039831A82910141
:101C700042E061E0D50154968D919C9155970E9468
:101C800026158A81982F9C7F8F858170E92EE82AFE
:101C90000F85188929893A89B401A301C5010E94D9
:101CA000531767CCCB8419821A821B821C82910144
:101CB00044E061E0F501848995890E9426156981D7
:101CC0007A818B819C810E948E3FF62FF770EF2ED8
:101CD0008B019C01B401A301C5010E94531749CC9B
:101CE0002B852F873CE039831A821B821C8291014D
:101CF00044E061E0848995890E94261569817A8192
:101D00008B819C810E948E3F6B017C01BFE0B98377
:101D10001A82910142E061E0F501848995890E946F
:101D20002615970186013327CF84EA80B401A301E9
:101D3000C5010E9453171DCC8FE789838EEF8A83DC
:101D40000E94E6306F87788B898B9A8B910142E0F5
:101D500060E0F801848595850E9426150E94E63092
:101D60006B017C01DC01CB012F85388949895A89B7
:101D7000821B930BA40BB50B81329340A105B105D7
:101D800008F4CFC0D80152968C91F801E80FF11DEC
:101D9000758A92E0968B178A8D5FF801828BBACC98
:101DA000318D308F7894AC01415F5F4F5F934F93DB
:101DB0001F922F93FC0187891F928F9389811F9215
:101DC0008F931F930F930E945F352DB73EB7265F09
:101DD0003F4F0FB6F8943EBF0FBE2DBFDFCAB7010D
:101DE0006E5E7F4F848595850E941B319C01ABEA16
:101DF000BAEA0E94953F96958795969587959C019E
:101E0000220F331F820F931F880F991FD7015596FA
:101E10009C938E9354978A159B0508F441CD579651
:101E20000C9119CD2D853E85E217F30709F0EAC024
:101E3000809590E02A8530E08217930709F413C15A
:101E4000D80152968C91F801E80FF11D758A93E044
:101E5000A1CFCB8ADC8AED8AFE8A2DCA6115710575
:101E600050E18507910508F008CE8B019C010150D7
:101E70001F4F2F4F3F4F5527432F322F212F0E94A7
:101E80005C3FDC01CB0140912B0250912C02609110
:101E90002D0270912E02840F951FA61FB71FE8CD4B
:101EA00010922602B1E0B0934D025DCCD090760244
:101EB0008D2D807F803109F027CD1B1508F482CD50
:101EC0008B2D90E0FC01EC58FD4F20812E3709F05E
:101ED0001BCDFC01EE58FD4F4F01FC01ED58FD4FAD
:101EE0009081D4018C91292F30E07901F82A6DEF8F
:101EF0006B0D85E792E00E94FC30E816F90609F4C4
:101F000048C1C090750200CDF8018289E80FF11D2B
:101F1000758A91E0968B178A8D5FD80152968C93C3
:101F2000F9CB80EC89831A82910142E061E0D8010B
:101F30001C968D919C911D970E94261549812A819E
:101F4000942F9227892F82958F709827892F8695B5
:101F500086958927982F9695892780FD98C046FFFA
:101F6000A6C0F8018289E80FF11D758A25E0268B4D
:101F7000178A8D5FD80152968C93CCCBD8011C96D2
:101F8000ED91FC911D976480B281BF8723812F8BD7
:101F900040E06B2F722F862D0E94FF180E94E630C2
:101FA0006B017C0130E1C30ED11CE11CF11C0E94CD
:101FB000E6302F2DC616D706E806290B27FFF7CFE8
:101FC000F89441E06F857F89862D0E94FF180E945A
:101FD000E6306B017C017894D101EAE01D92EA952C
:101FE000E9F7F4E8F98323E22A8391014AE061E00A
:101FF000D8011C968D919C911D970E942615FE017B
:10200000339685E09191892728E030E005C0880F5C
:102010002150310909F406CF87FFF9CF880FBDE1C0
:102020008B27F6CF54896589908921893289438924
:102030008F5F858F78946F935F934F933F932F9328
:102040009F9389811F928F9386E296E09F938F934F
:102050000E945F35EDB7FEB73A960FB6F894FEBF13
:102060000FBEEDBF76C9898584FF18C08B8187FDBF
:1020700060C0D80152968C91F801E80FF11D758A65
:10208000B4E0B68B178A8D5FF801828B43CBF801E1
:102090008289E80FF11D758A93E03CCFD8015296F2
:1020A0008C91F801E80FF11D758AB5E0EACFC818E8
:1020B000D908EA08FB08F80133893323C9F08FEF08
:1020C000830F61E070E002C0660F771F8A95E2F728
:1020D000CB01092E000CAA0BBB0BC80ED91EEA1EA1
:1020E000FB1E04C0F694E794D794C7943A95D2F7B0
:1020F0007FEFC716D104E104F10408F03FC0842F3C
:1021000090E0AC01542F4427550F550FF4E02F9F5A
:10211000C0011124842B952BD80152962C91F801E3
:10212000E20FF11DC58A868B978B2D5FF801228BFC
:10213000F1CAC818D908EA08FB08F1E5CF16F5E599
:10214000DF06E104F104D0F42C8130E0220F331FCC
:1021500090E0982F8827990F822B932BD8015296C5
:102160003C91F801E30FF11D2F8126952F73258BEC
:10217000868B978B3D5FF801328BCCCAD801529683
:102180008C91F801E80FF11D758A91E003CE11E002
:10219000E1CB802F8D7F80932A0280910902D81293
:1021A00002C181E08D0D8F70806180930902B7E7D5
:1021B0008B16B2E09B0609F008F4BEC0E7E7F2E038
:1021C000B98ECDB6DEB68F010F5F1F4F208122235F
:1021D00009F4E6C0EEE7F5E08491281708F0E0C0C6
:1021E00030E0220F331F220F331F220F331FF9015C
:1021F000E950FD4FE4914DB75EB764E0E69F4019AA
:10220000510911240FB6F8945EBF0FBE4DBF8DB7B4
:102210009EB70196F901E750FD4F4491F901E65050
:10222000FD4F65917491FB01640F711DAC01D88A5B
:10223000CF86988F8F8B6E177F0709F482C0801628
:10224000910608F46EC0A491A53028F1A73009F0DA
:1022500068C02801BFEF4B1A5B0AD801AC9082011D
:102260000A0D111D8016910608F45BC0B12CC12C1B
:10227000D12CDA01AD92BD92CD92DC921397612CF4
:10228000712C14964D925D926D927C921797485FD7
:102290005F4F3196D0CF7A0184E0E80EF11C6801DF
:1022A0009FEFC91AD90AD8011C91912F9F77492E07
:1022B000512C612C712C012F00760036A9F117FFEB
:1022C0003EC086010F5F1F4FD80111978C91440CBF
:1022D000551C661C771C440C551C661C771C440C52
:1022E000551C661C771C440C551C661C771C440C42
:1022F000551C661C771C440C551C661C771C440C32
:10230000551C661C771C982F9F77492A87FDDACFCA
:10231000DA014D925D926D927C921397A7013196EE
:102320008ACF87E00E94EB3EB0EE4B2A55245A94A8
:10233000652C762CC4CFB98CDD24D3940ECB8601CA
:10234000E7CFCF84D8888F89988D40912702442386
:1023500031F0F901E850FD4FE491E0FF11C0245045
:102360003D4FF90125913491F90119950FB6F89473
:10237000DEBE0FBECDBE08151905E8F6F80121CF67
:10238000809128021F928F93E2E6F6E0FF93EF938D
:102390000E945F350FB6F894DEBE0FBECDBEEBCF08
:1023A00085E00E94EB3E1B2DCDCACF93DF93EC015D
:1023B00062EF71E188810E94132BFC018C819D8169
:1023C000AE81BF81892B8A2B8B2B51F420E0F894AE
:1023D00094A59D7F922B94A77894DF91CF91089537
:1023E00022E0F5CF0F931F93CF93DF938C014DE243
:1023F00050E062EF71E1FC0180810E94E42AEC016F
:10240000F801848518160CF041C064E06CA7F8014F
:1024100084810E94942F6A8F7B8F8C8F60E0F801FB
:1024200080850E94942F6D8F7E8F8F8F80E090E04B
:10243000A0E0B0EC88A399A3AAA3BBA3F80180896C
:102440009189A289B3898E8B9F8BA88FB98F6BE0FE
:1024500070E0CE0184960E94752B8E899F89A88D8D
:10246000B98D8997A105B10548F08CEF92E19B8366
:102470008A83DF91CF911F910F9108958CA5806180
:102480008CA7DF91CF911F910F91089560E0BECF8F
:10249000CF93DF93EC0162EF71E188810E94132BEF
:1024A000FC018C819D81AE81BF81F8944685578562
:1024B00060897189452B462B472B79F4848395835A
:1024C000A683B783828B938BA48BB58B84A5877FE0
:1024D00084A77894DF91CF91089586E10E94EB3E26
:1024E0000F931F93CF93DF938C0162EF71E1DC01B7
:1024F0008C910E94132BEC010E948F2BFC01D801C0
:1025000014964D915D916D917C9117974283538301
:102510006483758318968D919C9119979187808714
:10252000892B09F466C0D8011C968D919C911D974A
:10253000978386831286F8948CA5282F217081FBBF
:10254000992790F9291729F091E0892792859160C0
:1025500092874E855F8568897989452B462B472B65
:1025600059F583FD19C08CA7118210828CA19DA101
:10257000892BA9F1AEA1BFA1ED93FC93FFA3EEA31C
:10258000CE010E948B34CE010E94863C7894DF916C
:10259000CF911F910F910895809147029091480229
:1025A00091838083F0934802E09347027894DF910F
:1025B000CF911F910F9108958CA7118210828CA149
:1025C0009DA1892B89F0AEA1BFA1ED93FC93FFA340
:1025D000EEA37894DF91CF911F910F910895FFA3FF
:1025E000EEA3FDA3ECA3CCCFFFA3EEA3FDA3ECA32E
:1025F000CDCF87E10E94EB3ECF92DF92EF92FF9228
:102600000F931F93CF93DF93EC01EA8DFB8D8C8D9D
:1026100080830E94E6300E891F89288D398D6B01D9
:102620007C01C00ED11EE21EF31E8E859F85A889F7
:10263000B9890197A109B1098E879F87A88BB98BAA
:1026400080FF0EC0CC82DD82EE82FF8281E0DF91CE
:10265000CF911F910F91FF90EF90DF90CF90089551
:10266000892B8A2B8B2B59F1488559856A857B8567
:102670008A899B89AC89BD89840F951FA61FB71FC6
:102680008A8B9B8BAC8BBD8B0C851D85012E000C22
:10269000220B330B400F511F621F731F488759874E
:1026A0006A877B872B2F8C159D05AE052F0927FD8B
:1026B000C9CF8C839D83AE83BF8381E0C8CFCE0119
:1026C0000E948B34811102C080E0C1CF4C815D81BA
:1026D0006E817F81972F4C155D056E059F0997FFD1
:1026E000B6CF4C195D096E097F094038514C6F4FC8
:1026F0007F4F0CF0A7CF88E10E94EB3E0F931F9312
:10270000CF93DF938C0180913F0290914002892BFF
:1027100009F04BC060913E0270E0623071052CF40C
:1027200082E080933E0262E070E0E0913A02F09134
:102730003B024DB75EB741505F4F44275A959F010A
:10274000C0E0D0E0C901860F971F4817590730F144
:1027500021969C01C115A4E0DA07A1F78E1B9F0BFF
:102760000E943C35D0934002C0933F0290933D02BB
:1027700080933C020E942B2BF80180819181A281E1
:10278000B3818093410290934202A0934302B0939D
:102790004402DF91CF911F910F910895209711F07E
:1027A000C901DCCF80E10E94EB3E8DE00E94EB3E50
:1027B000CF932091380230913902232B91F4FC0100
:1027C000C0818C2F90E0880F991F880F991F0E945D
:1027D0003C359093390280933802C0933702CF91F1
:1027E00008958AE00E94EB3E80913F029091400262
:1027F0009F938F9321E030912702311101C020E097
:102800001F922F93209144022F93209143022F93E4
:10281000209142022F93209141022F9321E0892B96
:1028200009F420E01F922F9384E496E09F938F9306
:102830000E945F358DB79EB70C960FB6F8949EBF79
:102840000FBE8DBF089546E050E065E574E1FC01E0
:1028500080810C94E42ACF92DF92FF920F931F9312
:10286000CF93DF93EC0165E574E18C810E94132B1B
:102870006C01F8840F2D10E0A8014D5F5F4F6BE2F3
:1028800074E188810E94E42AFC01D182C082F28234
:102890006C857D85A8010396DF91CF911F910F91E3
:1028A000FF90DF90CF900C940C40FF920F931F93FA
:1028B000CF93DF938C0146E050E065E574E1FC01C5
:1028C00080810E94E42AEC01F801F08461E0F110BB
:1028D00060E0F80184810E94942F6A837B838C835B
:1028E0008D81F11009C091E0892B8D83DF91CF910B
:1028F0001F910F91FF90089599E0892B8D83DF91AF
:10290000CF911F910F91FF9008958BE10E94EB3EB4
:102910008F929F92AF92BF92FF920F931F93CF938C
:10292000DF93EC0165E574E188810E94132B8C0133
:10293000F88483E08F1508F484C0F80185818670DF
:1029400009F07FC08C849D84AE84BF848C819D817E
:10295000AE81BF81892B8A2B8B2B09F074C0EEE6E8
:10296000F6E0A591B49111968C9180FD04C060E0D1
:1029700088E00E94942F60E089E00E94942F60E03C
:102980008AE00E94942F60E08BE00E94C61880E5E8
:102990008CBD1DBC8114F2E19F06FAE7AF06B104BD
:1029A00008F041C0811489E098068DE3A806B104BF
:1029B00018F5E0E88E16E4E89E06EEE1AE06B104F6
:1029C000C0F5F0E48F16F2E49F06FFE0AF06B10415
:1029D00068F580E2881681EA980687E0A806B104C7
:1029E00058F590E0E0E98E16E0ED9E06E3E0AE06D5
:1029F000B10428F583E002C090E080E0CF2DCC0F39
:102A0000CC0FC065C82BF801C08391838581846099
:102A10008583DF91CF911F910F91FF90BF90AF9071
:102A20009F908F90089591E080E0E8CF90E081E062
:102A3000E5CF91E081E0E2CF91E082E0DFCF82E07C
:102A4000DDCF0E9485148EE20E94EB3E6F927F9252
:102A50008F929F92AF92BF92CF92DF92EF92FF92AE
:102A60000F931F93CF93DF934C01E62E142F690130
:102A7000DC0115967C901597872D867009F451C05E
:102A800071FC39C0F401908181819CBD8DBDF72D11
:102A9000F1706F2E70FCC8C0EE2009F49CC08FEF5F
:102AA000810F112351F0F60190819EBD0DB407FEF8
:102AB000FDCF9EB591938150B8F7662091F1072D17
:102AC000069506950695402F40954170D4011296C3
:102AD0006D917D918C91DF91CF911F910F91FF901E
:102AE000EF90DF90CF90BF90AF909F908F907F90AE
:102AF0006F900C94FF18ED91FC91418542706681B6
:102B0000778180850E94FF18B72DB1706B2E70FC05
:102B100017C0D401CD91DC91AA24AA94A10E111161
:102B200026C0DF91CF911F910F91FF90EF90DF9022
:102B3000CF90BF90AF909F908F907F906F900895AF
:102B4000072D069506950695402F4170F401628188
:102B5000738184810E94FF18D401CD91DC91AA2455
:102B6000AA94A10E112309F4AECF66246394B12C6C
:102B70008FEFA81AB80AAC0CBD1CD601FC9008E077
:102B800010E0898580FF35C0EE81FF8188858083D4
:102B90004F2D40786B817C818D810E94FF18FF0C46
:102BA000EE81FF8188858083110FE881F981908112
:102BB0008A81892391E009F490E0192B015009F7EB
:102BC000EE2011F0F6011083FFEFCF1ADF0AAC14EC
:102BD000BD0499F672CFF6019601210F311D2E1713
:102BE0003F0709F46ACF81918EBD0DB407FEFDCF7A
:102BF000F6CF4F2D40786B817C818D810E94FF182C
:102C0000FF0CEE81FF8188858083110FE881F981B7
:102C100090818A81892391E009F490E0192BEE815B
:102C2000FF8188858083CACF73FA442740F9F40175
:102C30006281738184810E94FF18662463942CCF83
:102C4000CF93DF93EC0165E574E188810E94132B3B
:102C5000288539854C8160E0DF91CF910C94261551
:102C6000FF920F931F93CF93DF93EC01188165E5DB
:102C700074E1812F0E94132B0C81F884C9852F2DBC
:102C80003C2F402F61E00E942615CF93FF921F92A8
:102C90000F931F921F9381E296E09F938F930E9460
:102CA0005F358DB79EB708960FB6F8949EBF0FBEDE
:102CB0008DBFDF91CF911F910F91FF900895FC017F
:102CC00092899460928B1092260281E080935B023D
:102CD00080E00895FC011092260281E08093450275
:102CE000818D8160818F4481558166817781808566
:102CF0009185A285B385840F951FA61FB71F848376
:102D00009583A683B78381E008950F931F93CF9394
:102D1000DF938C0167EC76E1FC0180810E94132B2C
:102D2000EC010E94343CF80184819581A681B78131
:102D30008C839D83AE83BF8380859185A285B38577
:102D400088879987AA87BB87892B8A2B8B2B29F4A5
:102D5000DF91CF911F910F91089584859585A68568
:102D6000B7858C879D87AE87BF8780899189A28927
:102D7000B389888B998BAA8BBB8B84898E8B1F8A96
:102D8000CE01DF91CF911F910F910C94863CFF9261
:102D90000F931F93CF93DF93EC01F88483E08F159B
:102DA000E0F04AE150E067EC76E188810E94E42A95
:102DB0008C018AE696E1F8019383828365E574E1EC
:102DC0008C810E94132BF801958B848BF08EDF9100
:102DD000CF911F910F91FF90089587E20E94EB3EE3
:102DE0008F929F92AF92BF92EF92FF920F931F9399
:102DF000CF93DF931F921F92CDB7DEB77C016FE9AF
:102E00007AE1FC0180810E94132B8C018FEA898377
:102E10001A820E94E6304B015C019E012F5F3F4FFA
:102E200042E061E0F801848595850E9426150E94A4
:102E3000E630F80121892F9320892F932A812F7161
:102E40001F922F9323891F922F9327852F932685D7
:102E50002F93DC01CB0188199909AA09BB09BF93FB
:102E6000AF939F938F93BF92AF929F928F92F701F0
:102E700080811F928F9383E096E09F938F930E94AF
:102E80005F350FB6F894DEBF0FBECDBF0F900F9029
:102E9000DF91CF911F910F91FF90EF90BF90AF9076
:102EA0009F908F9008958F929F92AF92BF92CF92F2
:102EB000EF920F931F93CF93DF93EC0148015901D9
:102EC0001F92EF92BF92AF929F920F937F936F9357
:102ED0005F934F931F92CF9289EF95E09F938F93CB
:102EE0000E945F358DB79EB70E960FB6F8949EBFC1
:102EF0000FBE8DBFE11009C08C859D85AE85BF8555
:102F000088169906AA06BB0688F48F898F5F8F8B77
:102F10009E898917B0F4DF91CF911F910F91EF90A7
:102F2000CF90BF90AF909F908F9008958889998996
:102F3000AA89BB8988159905AA05BB0530F31F8AA4
:102F4000EACF809127028111FACF86E20E94EB3E00
:102F5000CF92DF92EF92FF926B017C0109C00E9439
:102F6000E630292F6C157D058E052F0927FF09C036
:102F70008091BC0087FFF3CFFF90EF90DF90CF9060
:102F8000089580E30E94EB3E24EA2093BC000E9457
:102F9000A8178091B90090E0A0E0B0E080319105E1
:102FA000A105B10521F00897A105B10509F408951F
:102FB0008FE20E94EB3E7F928F929F92AF92BF92E0
:102FC000CF92DF92EF92FF920F931F93CF93DF93F5
:102FD000782EC62F942EB52E822E0E94E6306B01DD
:102FE0007C0120E8C20E28E3D21E21E0E21EF11C83
:102FF000C701B6010E94C4177092BB0084E8809399
:10300000BC00C701B6010E94A817AA24AA94AC0E5E
:10301000CC23B1F0C92DDB2DB12C8FEFA81AB80A43
:10302000AC0EBD1E94E8992E89918093BB009092BE
:10303000BC00C701B6010E94A817AC16BD06A1F7D7
:10304000C701B6010E94C417872D81608093BB0021
:1030500084E88093BC00C701B6010E94A817DFEF87
:10306000D80D882009F15801CD2F84EC982ECC235F
:1030700069F09092BC00C701B6010E94A817809128
:10308000BB00F50181935F01C15099F7F801ED0F85
:10309000F11DEF0184E88093BC00C701B6010E94D6
:1030A000A8178091BB00888384E98093BC00DF91DE
:1030B000CF911F910F91FF90EF90DF90CF90BF9035
:1030C000AF909F908F907F900895BF92CF92DF92A4
:1030D000EF92FF920F931F93CF93DF93D82FC62FBA
:1030E000B42E152F0E94E6306B017C0120E8C20E41
:1030F00028E3D21E21E0E21EF11CC701B6010E94A6
:10310000C417D093BB0084E88093BC00C701B6010C
:103110000E94A8170FEF0C0FCC23A9F0CB2DD12FB5
:1031200010E00F5F1F4F0C0F1D1F84E8B82E899110
:103130008093BB00B092BC00C701B6010E94A817E3
:10314000C017D107A1F784E98093BC00DF91CF912C
:103150001F910F91FF90EF90DF90CF90BF90089557
:10316000FB012FB7F8949281141644F4982B8095A4
:1031700092839181892381832FBF0895809598231D
:1031800092839181892381832FBF08958036A0F592
:1031900067FD32C0E82FE695E695E695F0E0EE0F84
:1031A000FF1FE459F94FA591B491109729F1877049
:1031B00021E030E0A90102C0440F551F8A95E2F7D3
:1031C000CA014FB7F89412963C911297662381F08A
:1031D000382B282F209512963C93129711963C91EC
:1031E0001197232311962C9311974FBFBD0108957A
:1031F000282F20953223EFCF8BE20E94EB3EFB017C
:103200002FB7F8949281411105C08095892382835C
:103210002FBF0895892B82832FBF0895FB012FB7FD
:10322000F8949281411109C0382F309593239283ED
:103230009181892B81832FBF0895982B928391814F
:10324000892B81832FBF0895CF92DF92EF92CF9386
:10325000DF93EC0161E088859985AA85BB85892B80
:103260008A2B8B2B09F460E08C810E94942F6B01D8
:10327000E82E44E250E064E279E188810E94E42A89
:10328000FC01C48AD58AE68A21E0488559856A8589
:103290007B85452B462B472B09F420E04C855D852B
:1032A0006E857F85452B462B472BB1F430E0232BD1
:1032B000FC0123A3488959896A897B89478B508FF0
:1032C000618F728F6AE070E04F96DF91CF91EF903F
:1032D000DF90CF900C94752B30E1E9CFCF93DF9343
:1032E000EC0164E279E188810E94132BF894FC01DF
:1032F000278D30A1232B69F44C815D816E817F8104
:10330000FC01438F548F658F768F7894DF91CF9136
:10331000089584E10E94EB3E8F929F92AF92BF92FC
:10332000CF92DF92EF92FF921F93CF93DF93EC0146
:10333000EF8CF8A0E114F10409F4F0C0F7018081EA
:10334000918198A38F8F86809780A084B18411E0AB
:1033500081149104A104B10409F4A1C06C897D8990
:103360008E89412F0E94FF18809147029091480258
:10337000F70191838083F0924802E0924702811422
:103380009104A104B104E9F08B8D9C8DAD8DBE8DAF
:1033900088169906AA06BB06A0F44F89588D698D38
:1033A0007A8D411551056105710509F45BC08C8169
:1033B0009D81AE81BF81480F591F6A1F7B1F166018
:1033C00022C08BA131E081149104A104B10409F061
:1033D00068C084FB992790F921E09227391709F4F6
:1033E00043C04F89588D698D7A8D4115510561050E
:1033F0007105D1F18C819D81AE81BF81480F591F2C
:103400006A1F7B1F1460EF8DF8A1309709F077C019
:103410002BA1488B598B6A8B7B8B2071212B2BA383
:1034200011FF5FC0880D991DAA1DBB1D12FD52C062
:103430002EE73EE23B832A838C839D83AE83BF834A
:1034400088869986AA86BB868B8D9C8DAD8DBE8D18
:1034500088199909AA09BB098C879D87AE87BF8700
:1034600081E011C012608BA1EF8DF8A13097D9F4E3
:10347000188A198A1A8A1B8A8071812B8BA3812F43
:10348000827011FD34C0DF91CF911F91FF90EF90BA
:10349000DF90CF90BF90AF909F908F90089510E0F5
:1034A0005DCF30E096CF4281538164817581488B36
:1034B000598B6A8B7B8B8071912F9460892B8BA3A6
:1034C00011FF0FC08C819D81AE81BF81880D991D38
:1034D000AA1DBB1D2B2F84179507A607270B27FDB9
:1034E000A7CF4C835D836E837F8381E0CCCF40E0A8
:1034F00050E0BA018C819D81AE81BF8193CFC280A3
:10350000D380E480F580872F4C155D056E058F090B
:1035100087FD07C08BA1B701A601C9CF85E10E9435
:10352000EB3E83E10E94EB3EFC0192899460928B1A
:103530001092260281E08093460280E008950F9366
:103540001F93CF93DF938C0145E450E06FE97AE15C
:10355000FC0180810E94E42AEC0184E99AE19B83CA
:103560008A8365E574E1F80184810E94132B9D87AD
:103570008C87DF91CF911F910F910895CF93DF93A7
:10358000EC0145969F938F938B891F928F938F8524
:103590008F938E858F931F926F938EEF95E09F93FD
:1035A0008F930E945F351B8A8E859F8501969F872A
:1035B0008E878DB79EB70A960FB6F8949EBF0FBE42
:1035C0008DBFDF91CF910895CF93DF93EC016B8195
:1035D0007C818D8140E00E940E198D859E850E9420
:1035E000693B6E817F81888541E00E94B0188D859E
:1035F0009E850E94693B69857A858B8541E0DF91D4
:10360000CF910C94B0180F931F93CF93DF93EC01DD
:10361000062F18E01DC06B817C818D8140E00E94E7
:103620000E19000F8D859E850E94693B6E817F81FA
:10363000888541E00E94B0188D859E850E94693B77
:10364000688179818A8140E00E940E19115049F009
:1036500007FFE1CF69857A858B8541E00E94B0182C
:10366000E0CF69857A858B8541E00E94B0188D8511
:103670009E850E94693B6E817F81888541E00E9422
:10368000B018E985FA8510818B8518238D859E8574
:103690000E94693B688179818A8140E00E940E190D
:1036A00069857A858B8541E00E94B018111105C0AB
:1036B000DF91CF911F910F91089585E20E94EB3E1B
:1036C0001F93CF93DF93EC01162F8D859E850E946B
:1036D000693B69857A858B8541E00E94B0186E81CF
:1036E0007F81888541E00E94B0188D859E850E946B
:1036F000693B6B817C818D8140E00E940E198D8534
:103700009E850E94693B688179818A8140E00E94A0
:103710000E19612FCE01DF91CF911F910C94031BE5
:103720000F931F93CF93DF93EC01F8940E94E63040
:10373000088519852A853B85DC01CB01800F911F07
:10374000A21FB31F8C839D83AE83BF83CE010E94D3
:10375000863C7894DF91CF911F910F9108959F92AD
:10376000AF92BF92CF92DF92EF92FF920F931F938F
:10377000CF93DF93CDB7DEB729970FB6F894DEBFAE
:103780000FBECDBF8C01962E9E012F5F3F4F87E06D
:10379000F90111928A95E9F78FEA8887198688EAF4
:1037A0008983F801C388D12C7601F5E1EF0EF11C75
:1037B000E00EF11E47E061E0F801848595850E94E6
:1037C00026159E01285F3F4F42E061E0F8018485A5
:1037D00095850E9426158985F82FFF73AF2E80747A
:1037E000B82EF801EC0DFD1D8A81858B8B81F701C8
:1037F00081838C8182838D8183838E8184838F8179
:103800008583F80183898A5F838B8B3270F5BB20B7
:1038100031F0F801808991890196918B808BA110FC
:1038200004C0F8018489882329F1F801828981FF85
:103830000AC0C8010E94343CF80182898B7F828BC8
:10384000C8010E94901B29960FB6F894DEBF0FBEE8
:10385000CDBFDF91CF911F910F91FF90EF90DF903F
:10386000CF90BF90AF909F900895692DC8010E949E
:10387000BE1ACDCF1092260281E080934602E3CF9C
:103880004F925F926F927F928F929F92AF92BF9270
:10389000DF92EF92FF920F931F93CF93DF9300D0AD
:1038A0001F92CDB7DEB77C01FC01D0806FE97AE1D1
:1038B0008D2D0E94132B8C01F70180859185A285A7
:1038C000B385892B8A2B8B2BB1F1C8010E94343C24
:1038D000F70184819581A681B781F801848395835E
:1038E000A683B783F70180859185A285B385F8010A
:1038F00080879187A287B38781E0828B118A108AA3
:1039000017861686138A148AC8010E94863C0F9077
:103910000F900F900F90DF91CF911F910F91FF901B
:10392000EF90DF90BF90AF909F908F907F906F90BF
:103930005F904F900895C8010E94343CF801128AAC
:1039400081E0848B6D2DC8010E94AF1B8EE28B83BA
:103950001C820E94E6302B013C019E012D5F3F4FEF
:1039600042E060E0F801848595850E9426150E945A
:10397000E6304B015C018FEA89831A829E012F5F3A
:103980003F4F42E061E0F801848595850E9426154D
:103990008A818F71F82EF8018389882331F06D2D8B
:1039A000C8010E94BE1AF8018389F80191899F938A
:1039B00090899F931F92FF921F928F9387858F9379
:1039C00086858F93D501C40184199509A609B70985
:1039D000BF93AF939F938F937F926F925F924F921B
:1039E0001F92DF9283E096E09F938F930E945F3552
:1039F0000FB6F894DEBF0FBECDBF89CF9F92AF92B6
:103A0000BF92CF92DF92EF92FF920F931F93CF93CB
:103A1000DF93EC01C62E942ED52EB22E78016C8544
:103A2000862F8160A82EC11085C06A2DCE010E940C
:103A3000601B8FEF8B0DBB2009F46EC06701C80EB1
:103A4000D11C69857A858B8541E00E94B01808E019
:103A500010E08D859E850E94693B6E817F818885FF
:103A600041E00E94B0188D859E850E94693B110F30
:103A7000E985FA8590818B85892391E009F490E0AE
:103A8000192B688179818A8140E00E940E190150CA
:103A900001F769857A858B8541E00E94B018CE14C4
:103AA000DF04F1F06B817C818D8140E00E940E1972
:103AB0008D859E850E94693B6E817F81888541E06E
:103AC0000E94B0188D859E850E94693B688179812E
:103AD0008A8140E00E940E19F70111937F01B1CF56
:103AE00069857A858B8541E00E94B0188D859E8519
:103AF0000E94693B6E817F81888541E00E94B018F9
:103B00008D859E850E94693B688179818A8140E02C
:103B10000E940E19F6011083CE01DF91CF911F9103
:103B20000F91FF90EF90DF90CF90BF90AF909F905C
:103B30000C94E41ACE010E94601B092D1D2DCA941D
:103B4000D12CEFEFCE1ADE0AC00ED11EF801619122
:103B50008F01CE010E94031BC016D106B9F765CFB5
:103B6000DF92EF92FF920F931F93CF93DF937C012D
:103B7000C62FD42E152FFC0164850E94601B0FEF09
:103B80000C0FCC2371F0CD2DD12F10E00F5F1F4F04
:103B90000C0F1D1F6991C7010E94031BC017D1079D
:103BA000C9F7C701DF91CF911F910F91FF90EF905F
:103BB000DF900C94E41A8EE10E94EB3E0F931F936A
:103BC000CF93DF93FC01A189B2898D919C911197CC
:103BD000928B818B16968D919C911797C085D1857C
:103BE000228521113FC02FB7F894AC015527598386
:103BF00048832FBF209147023091480211963C9391
:103C00002E93B0934802A0934702A189B2891097DE
:103C100059F5278530898217930741F0838594856C
:103C2000A585B6850097A105B10531F480E0DF9147
:103C3000CF911F910F9108954481558166817781BD
:103C4000840F951FA61FB71F84839583A683B78310
:103C50008BED9DE19383828381E0DF91CF911F9172
:103C60000F9108958883C6CF12964D915D916D9105
:103C70007C911597278530898217930741F08385BA
:103C80009485A585B6850097A105B10551F44483B7
:103C900055836683778381E0DF91CF911F910F91E8
:103CA00008950481158126813781800F911FA21FFD
:103CB000B31F2B2F84179507A607270B27FFE7CFE6
:103CC0008DE10E94EB3EEF92FF920F931F93CF93F3
:103CD000DF937C016DED7EE1DC018C910E94132B62
:103CE0008C010E948F2BEC01F70184819581A681C4
:103CF000B7818A839B83AC83BD83808591859F83B5
:103D00008E83F89419821882D80151968D919C91D6
:103D10005297892BB9F15396ED91FC915497D18329
:103D2000C0835496DC93CE93539780E090E07894D0
:103D3000892B39F4DF91CF911F910F91FF90EF9074
:103D40000895C8010E94343CD80112968D919C912F
:103D500013978B5D9D41F1F08A819B81AC81BD8180
:103D60002EED3DE1F8013383228384839583A6837E
:103D7000B783C801DF91CF911F910F91FF90EF9012
:103D80000C94863CF801D48BC38BD28BC18B81E021
:103D900090E0CDCF8A819B81AC81BD81F8014481C7
:103DA000558166817781272F481759076A072B0BA2
:103DB00027FFD6CF8DE10E94EB3ECF92DF92EF92AC
:103DC000CF93DF93EC01488559856A857B852C85E7
:103DD0008C810E94AF2D6B01E82E45E150E06DED26
:103DE0007EE188810E94E42AFC01C086D186E286B9
:103DF00088899989908B87878C899D89AE89BF89AD
:103E000083879487A587B6878EED9DE19383828310
:103E100068E070E0CF014196DF91CF91EF90DF90A5
:103E2000CF900C94752B0F931F93CF93DF938C013E
:103E300062EA7FE1FC0180810E94132BEC010E9469
:103E4000343C909100028A8D981303C08FEF8093C9
:103E50000002F80184819581A681B781888B998BB6
:103E6000AA8BBB8B8C839D83AE83BF83808591851A
:103E7000A285B3858C879D87AE87BF8784858E8F0B
:103E800091E0980F9D8F4089518962897389488795
:103E900059876A877B87248935893F8B2E8B208DB4
:103EA000318D398F288F948D9C8F811105C0DF91C2
:103EB000CF911F910F910895CE01DF91CF911F9166
:103EC0000F910C94863CEF92FF920F931F93CF9328
:103ED000DF938C0160E97FE1FC0180810E94132B5C
:103EE000EC01F8948E8980FF13C07E01F8E0EF0E9C
:103EF000F11CC7010E94343CF80184819581A681A0
:103F0000B7818C879D87AE87BF87C7010E94863C9B
:103F10007894DF91CF911F910F91FF90EF900895CA
:103F200049E150E060E97FE1FC0180810E94E42AE0
:103F300029E938E2FC013383228324EB38E233871A
:103F400022870895CF93DC0114969C91149720E06A
:103F500030E0C22FF901EC57FA4FE4919E1741F07F
:103F60002F5F3F4F20313105A1F78DE20E94EB3EDC
:103F700087E980937A002830E8F420917E0081E080
:103F800090E00C2E01C0880F0A94EAF7822B8093F0
:103F90007E004FE150E062EA7FE18C910E94E42ACA
:103FA000FC0188EE9FE193838283C28F81E0858F3D
:103FB000CF91089520917D003C2F377081E090E0F3
:103FC00001C0880F3A95EAF7822B80937D00E1CFFC
:103FD000FC0180917A0086FF0EC084819581A681C4
:103FE000B7818853984FAF4FBF4F84839583A68383
:103FF000B78381E00895828D90910002981781F037
:104000009F3F59F780930002982F987090937B0000
:104010008770806480937C0087ED80937A00DDCF89
:104020008FEF809300022091780030917900858D88
:10403000968D891780F544895589240F351F8F5F28
:10404000358B248B858F891760F18689978928178E
:104050003907C8F1808D918D82179307A0F1138ED7
:104060001092260281E080934A0240895189628938
:10407000738980859185A285B385840F951FA61FBE
:10408000B71F808B918BA28BB38B84839583A68380
:10409000B78381E0089581E0358B248B858F891764
:1040A000A0F6448155816681778184859585A685B2
:1040B000B785840F951FA61FB71F84839583A6839A
:1040C000B78381E00895838D8F5F838F948D8917E7
:1040D00038F2809127028111C2CF8AE10E94EB3E23
:1040E0001F93CF93DF93EC01162FAC89BD891097F6
:1040F000B9F01296ED91FC9113978D919C911197C7
:104100009D8B8C8B11961C921E9213961C921E9264
:104110001297612FCD011995AC89BD89109749F788
:104120001092260281E080934902DF91CF911F9186
:104130000895EF92FF921F93CF93DF937C01FC01D0
:10414000108160E97FE1812F0E94132BEC01F8942C
:104150008E8980FF09C0F70164816F8B8A7F84603C
:104160008E8BCE010E947020CE010E94343CCE0185
:1041700008960E94343C1E8A8F8978941F921F9261
:104180001F921F921F928F931F921F921F921F9335
:104190008BE296E09F938F930E945F358DB79EB719
:1041A0000C960FB6F8949EBF0FBE8DBFDF91CF91D6
:1041B0001F91FF90EF900895CF93DF93EC010E9441
:1041C000343CCE0108960E94343CEC89FD8930973E
:1041D00051F0908181811382128211821082E92F25
:1041E000F82F3097B1F71D8A1C8A188E1F8A1E8AF5
:1041F000DF91CF9108950F931F93CF93DF938C019D
:1042000060E97FE1FC0180810E94132BEC01F894AE
:104210000E94DC2081E08E8BF80184819581A6814B
:10422000B7818C839D83AE83BF8380859185A28572
:10423000B385888B998BAA8BBB8B892B8A2B8B2B75
:1042400019F0CE010E94863CF8018485888F78940D
:10425000DF91CF911F910F910895FC01808982FD1C
:1042600019C08460808B1092260281E080934B02FB
:10427000448155816681778180859185A285B3854A
:10428000840F951FA61FB71F84839583A683B783CA
:1042900081E0089584898F5F848BE5CFFF920F932F
:1042A0001F93CF93DF93EC01F88483E08F1508F11F
:1042B00045E450E06EE471E288810E94E42A8C01BA
:1042C0008DE291E2F8019383828365E574E18C814C
:1042D0000E94132BF80195878487FC01858180FF5C
:1042E0000BC0F801F18ADF91CF911F910F91FF90E0
:1042F000089589E20E94EB3E88E20E94EB3ECF9354
:10430000DF93EC0145969F938F938A891F928F9339
:104310008F858F938E858F931F926F9380EE95E09C
:104320009F938F930E945F351A8A8E859F85019691
:104330009F878E878DB79EB70A960FB6F8949EBF5B
:104340000FBE8DBFDF91CF910895FF920F931F9302
:10435000CF93DF938C01FC01F0806EE471E28F2D2E
:104360000E94132BEC010E94343C188AF8018085CE
:104370009185A285B385892B8A2B8B2B01F58A89A0
:10438000811118C08F858F938E858F931F92FF9216
:1043900085EE95E09F938F930E945F350F900F906D
:1043A0000F900F900F900F90DF91CF911F910F9171
:1043B000FF9008956F2DCE010E947F21E3CFF80179
:1043C00084819581A681B7818C839D83AE83BF83D1
:1043D00080859185A285B38588879987AA87BB87C1
:1043E0001F861E861A8A84858B8BCE01DF91CF9122
:1043F0001F910F91FF900C94863CCF93DF93EC01BB
:104400006A8D662309F453C0FC0150E031E020E0DE
:10441000A38DB48D4C91958D942309F0532B2F5F70
:10442000330F33962613F4CF2C85922F952729F03E
:104430008D85852780959823D9F4888D5D8787FDA4
:1044400003C0815070F1888F4C815D816E817F81C6
:1044500088859985AA85BB85840F951FA61FB71FE0
:104460008C839D83AE83BF8381E0DF91CF910895DC
:10447000982F909529238523822B8C879E859830B1
:10448000E0F621E0290F2E87FE01E90FF11D878755
:104490001092260281E080934C028FEF888F5D8717
:1044A000D3CF1092260291E090934C02CCCF50E0F3
:1044B000BBCF0F931F93CF93DF938C0166E972E21A
:1044C000FC0180810E94132BEC010E94343CF80116
:1044D00084819581A681B7818C839D83AE83BF83C0
:1044E0004085518562857385488759876A877B87B0
:1044F00080898D878C871E861F8A8EEF888F8485A2
:10450000898F87FD10C0452B462B472B29F4DF915F
:10451000CF911F910F910895CE01DF91CF911F91FF
:104520000F910C94863C8FE10E94EB3ECF93FC01EF
:10453000C481C930B8F44C2F50E09A01220F331FC8
:10454000420F531F455E5F4F66E972E2FC018081B6
:104550000E94E42AFC01C28F2DEF31E233832283D3
:10456000CF91089581E20E94EB3E0F931F93CF936A
:10457000DF938C0166E972E2DC018C910E94132BBF
:10458000FC01D80114969C91828D9817B8F4292FBC
:1045900030E0E901CC0FDD1F2C0F3D1FEF01C20FF2
:1045A000D31FF801648580850E94C6186B8F7C8FAD
:1045B0008D8FDF91CF911F910F91089580E20E941E
:1045C000EB3EFC01448155816681778120858081A5
:1045D0000C94AF2DFC0196899460968B1092260264
:1045E00081E080934D0280E008950F931F93CF9355
:1045F000DF938C0148E450E065EF72E2FC018081BA
:104600000E94E42AEC018AEE92E29B838A8364EFA3
:104610007CE2F80184810E94132B9D878C87DF91B7
:10462000CF911F910F9108954F925F926F927F9259
:104630008F929F92AF92BF92CF92DF92EF92FF92B2
:104640000F931F93CF93DF9300D0CDB7DEB76C01EC
:1046500065EF72E2DC018C910E94132B7C010E94B9
:10466000E6304B015C0182E78B83D7011C96ED910C
:10467000FC911D978E010F5F1F4F22E0AE014D5F31
:104680005F4F61E080810E94DB170E94E6302B01C2
:104690003C0189818F718983F70181898F9380899A
:1046A0008F9324893589ABEABAEA0E94953F9695A3
:1046B0008795969587959F938F9387891F928F9360
:1046C00087858F9386858F93D301C20188199909B5
:1046D000AA09BB09BF93AF939F938F93BF92AF92E9
:1046E0009F928F92D6018C911F928F938BED95E0C4
:1046F0009F938F930E945F350FB6F894DEBF0FBE75
:10470000CDBF0F900F900F90DF91CF911F910F9120
:10471000FF90EF90DF90CF90BF90AF909F908F90E1
:104720007F906F905F904F9008957F928F929F92AD
:10473000AF92BF92CF92DF92EF92FF920F931F93AF
:10474000CF93DF937C01DC01DC916EE471E28D2F6D
:104750000E94132B8C01F701C481B084A184DC0179
:1047600051969C90B2E09B1609F44FC00E94E6302F
:104770006B017C012B2D3A2D4C2F61E0D8011C964A
:104780008D919C911D970E9426150E94E6308B0109
:104790009C010C191D092E093F0901321340210506
:1047A000310558F54C2F50E0E1E09E1659F1AF92DB
:1047B000BF925F934F93FF92EF92DF92CF921F923F
:1047C000DF938AEE95E09F938F930E945F358DB7BC
:1047D0009EB70C960FB6F8949EBF0FBE8DBFDF91AB
:1047E000CF911F910F91FF90EF90DF90CF90BF90EE
:1047F000AF909F908F907F90089540E050E0E1E06F
:104800009E12D5CF6B017C01D2CFDC011C96ED91BD
:10481000FC911D9794808280738040E0682D772DF5
:10482000892D0E94FF180E94E6306B017C01B0E1E7
:10483000CB0ED11CE11CF11C0E94E6302F2DC616B8
:10484000D706E806290B27FFF7CFF89441E0682D3B
:10485000772D892D0E94FF180E94E6306B017C01A4
:1048600078942B2D3A2D4C2F61E0F80184859585A5
:104870000E9426154C2F50E09ACF0F931F93CF9391
:10488000DF93EC01F8940E94E630088519852A85AB
:104890003B85DC01CB01800F911FA21FB31F8C83CE
:1048A0009D83AE83BF83CE010E94863C7894DF91C6
:1048B000CF911F910F910895CF93DF93EC0148960C
:1048C0009F938F938F891F928F938F858F938E8560
:1048D0008F931F926F9386ED95E09F938F930E9425
:1048E0005F351F8A8E859F8501969F878E878DB73E
:1048F0009EB70A960FB6F8949EBF0FBE8DBFDF918C
:10490000CF9108954F925F926F927F928F929F9274
:10491000AF92BF92DF92EF92FF920F931F93CF93CC
:10492000DF9300D01F92CDB7DEB78C01DC01DC90A5
:1049300065EF72E28D2D0E94132B7C01F8018085BA
:104940009185A285B385892B8A2B8B2BC9F1C70151
:104950000E94343CF80184819581A681B781F701DA
:1049600084839583A683B783F80180859185A2858A
:10497000B385F70180879187A287B38781E0868B13
:1049800017861686118A108A178A138A128A158A40
:10499000148AC7010E94863C0F900F900F900F90D1
:1049A000DF91CF911F910F91FF90EF90DF90BF901B
:1049B000AF909F908F907F906F905F904F900895F1
:1049C000C7010E94343CD70156961C9283E289832A
:1049D0001A820E94E6304B015C01D7011C96ED91D2
:1049E000FC911D97AE014F5F5F4F62E080810E9496
:1049F00065180E94E6302B013C018AE38C83D701C5
:104A00001C96ED91FC911D978E010D5F1F4F21E0CB
:104A1000AE014C5F5F4F61E080810E94DB178B81AC
:104A200084FD48C0D70157968C91882321F06D2DC5
:104A3000C7010E945C24B7016E5E7F4FF701848539
:104A400095850E941B31D70151962C9151972F9338
:104A500050962C912F939C01ABEABAEA0E94953FA5
:104A600096958795969587959F938F93F70187895C
:104A70001F928F9387858F9386858F93D301C20171
:104A800088199909AA09BB09BF93AF939F938F9384
:104A9000BF92AF929F928F921F92DF928BED95E023
:104AA0009F938F930E945F350FB6F894DEBF0FBEC1
:104AB000CDBF72CFF701808991890196918B808B50
:104AC000B1CFCF92DF92EF92FF92CF93DF93FC01B1
:104AD000A085B18582858C93968581E0892786871C
:104AE000C82FC170C688D788E08CF18C97859F5FEE
:104AF000D1899D1708F05FC0892F86958695869588
:104B0000DF01A80FB11D5A962C9130E0892F8770D4
:104B100002C0359527958A95E2F72170B701A60165
:104B2000C217A9F033C0892F869586958695DF0137
:104B3000A80FB11D5A962C9130E0892F877002C0C2
:104B4000359527958A95E2F72170C2131FC04C0D49
:104B50005D1D6E1D7F1D9F5F9D1728F386E598E202
:104B60009383828384819581A681B781480F591FE1
:104B70006A1F7B1F448355836683778381E0DF91BF
:104B8000CF91FF90EF90DF90CF9008959787848129
:104B90009581A681B781480F591F6A1F7B1F4483E7
:104BA00055836683778381E0DF91CF91FF90EF900B
:104BB000DF90CF900895B701A601D0CF6F927F927A
:104BC0008F92CF92DF92EF92FF92CF93DF93EC011F
:104BD00060E08C810E94942F3B01882EC884D98488
:104BE000EA84FB84D7FC24C0A601415F5F4F6EEDD1
:104BF00075E288810E94E42AFC01608271828282CF
:104C0000D686C5868C859D8594838383888999897A
:104C1000AA89BB8981879287A387B487DF91CF91C7
:104C2000FF90EF90DF90CF908F907F906F900895DE
:104C300084E20E94EB3ECF92DF92EF92FF920F93BD
:104C40001F93CF93DF93EC01E885F9858A858083F4
:104C50000E94E6303E8521E023272E872F852F5F97
:104C60002F87213009F45CC02530E0F40C811D81D0
:104C70002E813F814A895B896C897D89DB01CA016C
:104C8000800F911FA21FB31F8C839D83AE83BF83B0
:104C900081E0DF91CF911F910F91FF90EF90DF9016
:104CA000CF900895CC80DD80EE80FF80AB01BC0109
:104CB0004C195D096E097F098E899F89A88DB98D70
:104CC000481B590B6A0B7B0BDB01CA010296A11D25
:104CD000B11DB7FD34C0B595A79597958795B59546
:104CE000A795979587950A891B892C893D89800FFF
:104CF000911FA21FB31F8E8B9F8BA88FB98F21E6A8
:104D000035E23B832A834C0D5D1D6E1D7F1D840F94
:104D1000951FA61FB71F8C839D83AE83BF83B8CF1B
:104D20000C811D812E813F81AB01BC01401B510BC9
:104D3000620B730B4E8B5F8B688F798F9BCFDB0180
:104D4000CA010596A11DB11DC6CFEF92FF920F9328
:104D50001F93CF93DF937C0166E477E2FC018081AF
:104D60000E94132BEC011E8511FF07C0DF91CF912C
:104D70001F910F91FF90EF900895F70104816085D6
:104D80007185F4840B3008F045C0FAE0FF1508F493
:104D900041C0402F50E04A960E940C401F8611737C
:104DA00012601E87802F880F880F880F898BFF0C59
:104DB000FF0CFF0CF88A002349F08A8D8F738A322A
:104DC00029F48BE196E29B838A830CC08A899B89B4
:104DD000AC89BD898E8B9F8BA88FB98F81E695E2B8
:104DE0009B838A83F8940E94E630DC01CB018058D3
:104DF000934FAF4FBF4F8C839D83AE83BF83CE0154
:104E00000E94863C7894DF91CF911F910F91FF9083
:104E1000EF90089582E20E94EB3E0F931F93CF9391
:104E2000DF938C0166E972E2DC018C910E94132B06
:104E3000EC01D8011496EC918F898E0F8F8BF8942A
:104E40008E85E817D0F48E1BF0E03F96EC0FFD1F27
:104E5000DE011F962FEF280F30E0205F3F4F2C0F11
:104E60003D1F91919D93A217B307D9F78E87789430
:104E7000DF91CF911F910F9108951E868EEF888F3D
:104E80007894DF91CF911F910F9108957F928F9227
:104E90009F92AF92BF92CF92DF92EF92FF920F93C9
:104EA0001F93CF93DF93EC0144E250E066E477E296
:104EB00088810E94E42A8C0178848C809D80AE8059
:104EC000BF80CC84DD84EE84FF8461E0711001C07A
:104ED00060E0882D0E94C618F80163877487858773
:104EE00061E08C2D0E94942FF80160877187828782
:104EF00088899989AA89BB89828B938BA48BB58B6E
:104F0000711018C091E08C149D04AE04BF04C1F070
:104F100080E0892BF8018687DF91CF911F910F9157
:104F2000FF90EF90DF90CF90BF90AF909F908F90C9
:104F30007F90089591E18C149D04AE04BF0441F765
:104F400080E2E7CFCF93DF93EC018E8585FD0DC026
:104F5000688579858A8541E00E94FF188E85807377
:104F600081608E87DF91CF910895688579858A85E4
:104F700041E00E940E198E85807381608E87DF91DB
:104F8000CF910895CF93DF93FC01A385B4855C9105
:104F90008785982F977021E030E001C0220F9A9505
:104FA000EAF7982F969596959695DF01A90FB11D72
:104FB0005A969C915A9745854523E1F0292B5A969C
:104FC0002C938F5F90898917E8F4878744815581F6
:104FD0006681778186899789A08DB18D840F951F11
:104FE000A61FB71F84839583A683B78381E0DF91D3
:104FF000CF910895209529235A962C938F5F9089FD
:10500000891718F3EF01CF010E94A2278E858860CF
:105010008E871092260281E080934E0280E0DF911D
:10502000CF910895CF93DF93FC01A385B4859C9124
:1050300085858923E9F0868584608687878591E068
:10504000980F9787803408F5448155816681778170
:1050500086899789A08DB18D840F951FA61FB71FD4
:1050600084839583A683B78381E0DF91CF910895F0
:10507000868582FFE3CF178682EC97E29383828353
:10508000CF01DF91CF910C94C227EF01108ACF019D
:105090000E94A2278E8588608E871092260281E06A
:1050A00080934E0280E0DF91CF9108951F93CF93BC
:1050B000DF93EC011889112369F14E8545FD23C06A
:1050C0001F8682E198E29B838A838E899F89A88DBF
:1050D000B98D880F991FAA1FBB1F880F991FAA1F80
:1050E000BB1F4C815D816E817F81840F951FA61F40
:1050F000B71F8C839D83AE83BF8311E0812FDF9127
:10510000CF911F91089540716B857C858D850E949C
:10511000B018D6CF0E94A2278E8588608E87109205
:10512000260281E080934E02812FDF91CF911F9163
:105130000895FC0186898460868B1092260281E0A6
:105140008093490244815581668177818089918964
:10515000A289B389840F951FA61FB71F84839583E7
:10516000A683B78381E00895FC013897968990FF64
:1051700008C0608D678B9A7F9460968BCF010E94E8
:10518000702080E00895FC01A085B1859C91828506
:105190008923D1F0818D80958170C9F4838D8150F0
:1051A00031F1838F4481558166817781878590892C
:1051B000A189B289840F951FA61FB71F8483958389
:1051C000A683B78381E00895818D817039F38EE0E5
:1051D00099E29383828383899489A589B68984839C
:1051E0009583A683B783828D838F81E00895A789F5
:1051F000B08D56969C915697892F817090FFE3CF82
:10520000648D57966C9357979A7F946056969C93AB
:105210005697CD010E94702080E008950F931F9350
:10522000FC01A085B1859C9104811581268137817F
:105230004385548565857685400F511F621F731F16
:105240008285892361F0818D8095817059F0448336
:1052500055836683778381E01F910F910895818D37
:105260008170A9F7438B548B658B768B83EC98E226
:1052700093838283CF011F910F910C94C328CF9306
:10528000FC01C08161EB79E28C2F0E94132BFC01A1
:10529000F894818D33894489558966897894A085ED
:1052A000B1852C919285922321E009F420E01F9290
:1052B0002F936F935F934F933F93869581701F92C7
:1052C0008F931F92CF9380E396E09F938F930E94DA
:1052D0005F358DB79EB70C960FB6F8949EBF0FBE84
:1052E0008DBFCF910895CF93FC01C08162EF71E132
:1052F0008C2F0E94132BFC01F89480A191A1A2A1F4
:10530000B3A124A5468557856089718924FD04C011
:105310007695679557954795841B950BA60BB70B0C
:10532000B7FF07C0B095A095909581959F4FAF4F5F
:10533000BF4F7894B054BF93AF939F938F931F92B6
:10534000CF9385E396E09F938F930E945F358DB74F
:105350009EB708960FB6F8949EBF0FBE8DBFCF9133
:1053600008950F931F93CF93DF93EC014DE150E02D
:1053700061EB79E288810E94E42A8C0168858C8146
:105380000E94C618F801608771878287DF91CF91EC
:105390001F910F9108950F931F93CF93DF938C016B
:1053A00061EB79E2FC0180810E94132BEC010E94E9
:1053B000343CF80184819581A681B7818C839D83DB
:1053C000AE83BF8380859185A285B3858F87988BB7
:1053D000A98BBA8B84858A8F882361F1F801408973
:1053E0005189628973894B875C876D877E872EE040
:1053F00039E23B832A838B8F84899589A689B78973
:10540000892B8A2B8B2BA1F482E0898F60E97FE1C5
:10541000F801808D0E94132B988F8F8BF801848D5B
:105420008C8FCE01DF91CF911F910F910C94863C10
:1054300083E0EBCF188E1F8A198EDF91CF911F91D9
:105440000F9108950F931F93CF93DF938C01EC017D
:10545000A897CE010E94343C1C821D821E821F82AE
:105460001A8A1B8A1C8A1D8A88A199A1AAA1BBA19C
:105470002CA54E855F856889798924FD04C07695C1
:10548000679557954795841B950BA60BB70BB7FDF2
:1054900040C0B095A095909581959F4FAF4FBF4F5D
:1054A00088A399A3AAA3BBA31E861F86188A198A5C
:1054B000247128602CA76D8D7E8D8F8D40E00E9419
:1054C000FF184CA544706A8D7B8D8C8D0E94FF184F
:1054D000D8011497ED91FC9111973097A9F0409164
:1054E00047029091480201C0F90120813181408337
:1054F0009183F0934802E09347024E2F9F2F21158E
:10550000310591F71D921C92DF91CF911F910F9160
:105510000895B095A095909581959F4FAF4FBF4F3F
:10552000B8CF0F931F93CF93DF938C0162EF71E19C
:10553000FC0180810E94132BEC0160E97FE1F801FE
:1055400084810E94132BBE01685D7F4F4FB7F89492
:105550002AA53BA5232B89F422E23AE23BA72AA7FE
:10556000FC012489358939A728A7758B648B4FBF27
:10557000DF91CF911F910F91089589E10E94EB3E39
:10558000CF93DF93EC01988140913702A0913802CC
:10559000B09139020BC0FD0184E0989FE00DF11D30
:1055A0001124208131812617370741F09F5F94171E
:1055B00090F380E090E0DF91CF910895988382810D
:1055C0009381DF91CF910895CF93DF93909137022C
:1055D000891730F5C82FD0E0CC0FDD1FCC0FDD1FB1
:1055E000E0913802F0913902EC0FFD1F808191812A
:1055F000892BB1F480913F0290914002892B81F474
:1056000071836083CA010E943C3520913802309139
:105610003902C20FD31F9B838A83DF91CF910895F4
:105620008BE00E94EB3E90913702891788F4E0915D
:105630003802F091390294E0899FE00DF11D1124A8
:10564000808191818617970719F48281938108954B
:105650008CE00E94EB3ECF92DF92EF92FF92CF93CD
:10566000DF93C0913F02D09140022097B9F121977A
:105670006E01E12CF12CA0913E02B0E02097D9F010
:1056800020E030E040E050E0BA0180913C0290918F
:105690003D02FC01E20FF31F4F5F5F4F6F4F7F4FE3
:1056A0002A0F3B1F820F931F918380834C155D054A
:1056B0006E057F0550F380913C0290913D02CA9F98
:1056C000F001CB9FF00DDA9FF00D1124E80FF91FC8
:1056D000118210829093480280934702DF91CF910C
:1056E000FF90EF90DF90CF900895FC01138212821B
:1056F000118210826F3F710509F07CF480913F02A6
:1057000090914002892B49F480913E0290E08617E7
:10571000970714F460933E0208950E94692F2FB7F3
:10572000F8948091470290914802009749F0FC015B
:105730004081518150934802409347022FBF089502
:105740008FE00E94EB3E80912702882329F082306F
:1057500011F010922702089582E00E94EB3E88E04B
:105760000E94EB3ECF92DF92EF92FF920F931F9336
:105770000E94E6309F938F937F936F9301E010E038
:1057800020E030E0C0905302D0905402E0905502E7
:10579000F09056026C157D058E059F0518F000E00F
:1057A00010E0980180914F0290915002A091510217
:1057B000B0915202800F911FA21FB31FBF93AF93EE
:1057C0009F938F938EE496E09F938F930E945F3513
:1057D0008DB79EB70A960FB6F8949EBF0FBE8DBFC9
:1057E0001F910F91FF90EF90DF90CF9008950E944E
:1057F000E6309F938F937F936F9389E496E09F9316
:105800008F930E945F350F900F900F900F900F9025
:105810000F900895CF93DF93EC0164EF7CE28881D1
:105820000E94132B6C8148855985FC01238120FD42
:1058300006C0FC018081DF91CF910C9465188181B5
:105840009281DF91CF910C94B01D2F923F924F9295
:105850005F926F927F928F929F92AF92BF92CF9200
:10586000DF92EF92FF920F931F93CF93DF9300D0BD
:1058700000D0CDB7DEB78C012DB73EB73D832C836A
:1058800064EF7CE2DC018C910E94132B9A83898364
:10589000F801F481FB83D80118968D909C9019979C
:1058A0001C964D905D906D907C901F9740FC99C028
:1058B0007694679457944794F801E088F188C42C53
:1058C000D12CFB810F2F10E0C8018C0D9D1D2DB731
:1058D0003EB7281B390B0FB6F8943EBF0FBE2DBF45
:1058E0008DB79EB701965C01A981BA8113963C9051
:1058F000A801B4010E940C40B32DB170BE8330FEEC
:1059000053C01501200E311E8101242DA4016B818D
:10591000E981FA81818192810E94FE1CC114D10427
:1059200009F453C0A6014E0D5F1DF10120E030E0E7
:10593000D7018D917D018095908189238083DA0143
:105940009D91AD01892B81932F5F3F4F2C153D0514
:105950007CF3BE81B11139C06B81640DA501E98171
:10596000FA8180810E9465182C813D810FB6F894E0
:105970003EBF0FBE2DBF26960FB6F894DEBF0FBEFA
:10598000CDBFDF91CF911F910F91FF90EF90DF90EE
:10599000CF90BF90AF909F908F907F906F905F90CF
:1059A0004F903F902F9008951501200E311E8101D8
:1059B000242DA4016B81E981FA8180810E94DB178B
:1059C000C114D10409F0AECFC7CF6B81640DA5011E
:1059D000A981BA8111968D919C9112970E94B01D58
:1059E000C3CF8CE10E94EB3E44E050E064EF7CE2E8
:1059F000FC0180810C94E42AAF92BF92CF92DF9297
:105A0000EF92FF920F931F93CF93DF93CDB7DEB743
:105A10007C01ADB6BEB6FC01C08064EF7CE28C2D8B
:105A20000E94132BF701648140855185D4842DB7E2
:105A30003EB72D1931090FB6F8943EBF0FBE2DBFEA
:105A4000EDB7FEB731967F01FC012381870120FD70
:105A50002AC02D2DFC0180810E94DB17FF92EF925E
:105A60001F92DF921F92CF928CE196E09F938F93CB
:105A70000E945F352DB73EB7285F3F4F0FB6F894B1
:105A80003EBF0FBE2DBF0FB6F894BEBE0FBEADBE5B
:105A9000DF91CF911F910F91FF90EF90DF90CF900A
:105AA000BF90AF9008952D2D818192810E94FE1CA0
:105AB000D5CF8F929F92AF92BF92FF920F931F9379
:105AC000CF93DF938C01FC0184858F77F82E64EFF0
:105AD0007CE280810E94132BEC01F8018481958186
